{
  "contractName": "Dex",
  "abi": [
    {
      "inputs": [
        {
          "internalType": "address[]",
          "name": "_tokenAddr",
          "type": "address[]"
        }
      ],
      "stateMutability": "nonpayable",
      "type": "constructor"
    },
    {
      "anonymous": false,
      "inputs": [
        {
          "indexed": false,
          "internalType": "address",
          "name": "acount",
          "type": "address"
        },
        {
          "indexed": false,
          "internalType": "address",
          "name": "_tokenAddr",
          "type": "address"
        },
        {
          "indexed": false,
          "internalType": "uint256",
          "name": "_cost",
          "type": "uint256"
        },
        {
          "indexed": false,
          "internalType": "uint256",
          "name": "_amount",
          "type": "uint256"
        }
      ],
      "name": "buy",
      "type": "event"
    },
    {
      "anonymous": false,
      "inputs": [
        {
          "indexed": false,
          "internalType": "address",
          "name": "acount",
          "type": "address"
        },
        {
          "indexed": false,
          "internalType": "address",
          "name": "_tokenAddr",
          "type": "address"
        },
        {
          "indexed": false,
          "internalType": "uint256",
          "name": "_cost",
          "type": "uint256"
        },
        {
          "indexed": false,
          "internalType": "uint256",
          "name": "_amount",
          "type": "uint256"
        }
      ],
      "name": "sell",
      "type": "event"
    },
    {
      "inputs": [
        {
          "internalType": "address",
          "name": "_tokenAddr",
          "type": "address"
        },
        {
          "internalType": "uint256",
          "name": "_cost",
          "type": "uint256"
        },
        {
          "internalType": "uint256",
          "name": "_amount",
          "type": "uint256"
        }
      ],
      "name": "buyToken",
      "outputs": [],
      "stateMutability": "payable",
      "type": "function"
    },
    {
      "inputs": [
        {
          "internalType": "address",
          "name": "_tokenAddr",
          "type": "address"
        },
        {
          "internalType": "uint256",
          "name": "_cost",
          "type": "uint256"
        },
        {
          "internalType": "uint256",
          "name": "_amount",
          "type": "uint256"
        }
      ],
      "name": "sellToken",
      "outputs": [],
      "stateMutability": "nonpayable",
      "type": "function"
    }
  ],
  "bytecode": "0x60806040523480156200001157600080fd5b5060405162000f3138038062000f318339818101604052810190620000379190620001b3565b60005b8151811015620000f257600160008084848151811062000083577f4e487b7100000000000000000000000000000000000000000000000000000000600052603260045260246000fd5b602002602001015173ffffffffffffffffffffffffffffffffffffffff1673ffffffffffffffffffffffffffffffffffffffff16815260200190815260200160002060006101000a81548160ff0219169083151502179055508080620000e990620002c4565b9150506200003a565b50506200039b565b6000620001116200010b8462000221565b620001f8565b905080838252602082019050828560208602820111156200013157600080fd5b60005b858110156200016557816200014a88826200016f565b84526020840193506020830192505060018101905062000134565b5050509392505050565b600081519050620001808162000381565b92915050565b600082601f8301126200019857600080fd5b8151620001aa848260208601620000fa565b91505092915050565b600060208284031215620001c657600080fd5b600082015167ffffffffffffffff811115620001e157600080fd5b620001ef8482850162000186565b91505092915050565b60006200020462000217565b90506200021282826200028e565b919050565b6000604051905090565b600067ffffffffffffffff8211156200023f576200023e62000341565b5b602082029050602081019050919050565b60006200025d8262000264565b9050919050565b600073ffffffffffffffffffffffffffffffffffffffff82169050919050565b6000819050919050565b620002998262000370565b810181811067ffffffffffffffff82111715620002bb57620002ba62000341565b5b80604052505050565b6000620002d18262000284565b91507fffffffffffffffffffffffffffffffffffffffffffffffffffffffffffffffff82141562000307576200030662000312565b5b600182019050919050565b7f4e487b7100000000000000000000000000000000000000000000000000000000600052601160045260246000fd5b7f4e487b7100000000000000000000000000000000000000000000000000000000600052604160045260246000fd5b6000601f19601f8301169050919050565b6200038c8162000250565b81146200039857600080fd5b50565b610b8680620003ab6000396000f3fe6080604052600436106100295760003560e01c80633e11741f1461002e578063e671499b14610057575b600080fd5b34801561003a57600080fd5b5061005560048036038101906100509190610665565b610073565b005b610071600480360381019061006c9190610665565b61039a565b005b82600115156000808373ffffffffffffffffffffffffffffffffffffffff1673ffffffffffffffffffffffffffffffffffffffff16815260200190815260200160002060009054906101000a900460ff16151514610106576040517f08c379a00000000000000000000000000000000000000000000000000000000081526004016100fd9061090e565b60405180910390fd5b6000849050838173ffffffffffffffffffffffffffffffffffffffff166370a08231336040518263ffffffff1660e01b8152600401610145919061082e565b60206040518083038186803b15801561015d57600080fd5b505afa158015610171573d6000803e3d6000fd5b505050506040513d601f19601f8201168201806040525081019061019591906106dd565b10156101d6576040517f08c379a00000000000000000000000000000000000000000000000000000000081526004016101cd9061092e565b60405180910390fd5b82471015610219576040517f08c379a0000000000000000000000000000000000000000000000000000000008152600401610210906108ee565b60405180910390fd5b8073ffffffffffffffffffffffffffffffffffffffff166323b872dd3330876040518463ffffffff1660e01b815260040161025693929190610849565b602060405180830381600087803b15801561027057600080fd5b505af1158015610284573d6000803e3d6000fd5b505050506040513d601f19601f820116820180604052508101906102a891906106b4565b5060003373ffffffffffffffffffffffffffffffffffffffff16846040516102cf90610819565b60006040518083038185875af1925050503d806000811461030c576040519150601f19603f3d011682016040523d82523d6000602084013e610311565b606091505b5050905080610355576040517f08c379a000000000000000000000000000000000000000000000000000000000815260040161034c9061096e565b60405180910390fd5b7f31de7d15e9e6c3b6f319c842341b735c0f9d7a5d06944314495f952400bd74c03387878760405161038a9493929190610880565b60405180910390a1505050505050565b82600115156000808373ffffffffffffffffffffffffffffffffffffffff1673ffffffffffffffffffffffffffffffffffffffff16815260200190815260200160002060009054906101000a900460ff1615151461042d576040517f08c379a00000000000000000000000000000000000000000000000000000000081526004016104249061090e565b60405180910390fd5b6000849050833414610474576040517f08c379a000000000000000000000000000000000000000000000000000000000815260040161046b9061098e565b60405180910390fd5b828173ffffffffffffffffffffffffffffffffffffffff166370a08231306040518263ffffffff1660e01b81526004016104ae919061082e565b60206040518083038186803b1580156104c657600080fd5b505afa1580156104da573d6000803e3d6000fd5b505050506040513d601f19601f820116820180604052508101906104fe91906106dd565b101561053f576040517f08c379a00000000000000000000000000000000000000000000000000000000081526004016105369061094e565b60405180910390fd5b8073ffffffffffffffffffffffffffffffffffffffff1663a9059cbb33856040518363ffffffff1660e01b815260040161057a9291906108c5565b602060405180830381600087803b15801561059457600080fd5b505af11580156105a8573d6000803e3d6000fd5b505050506040513d601f19601f820116820180604052508101906105cc91906106b4565b507fa9d424e2b661a4cf6090e4849fd2d81c17106afa4b26188dcc493a69ea4c2b5e338686866040516106029493929190610880565b60405180910390a15050505050565b60008135905061062081610b0b565b92915050565b60008151905061063581610b22565b92915050565b60008135905061064a81610b39565b92915050565b60008151905061065f81610b39565b92915050565b60008060006060848603121561067a57600080fd5b600061068886828701610611565b93505060206106998682870161063b565b92505060406106aa8682870161063b565b9150509250925092565b6000602082840312156106c657600080fd5b60006106d484828501610626565b91505092915050565b6000602082840312156106ef57600080fd5b60006106fd84828501610650565b91505092915050565b61070f816109ca565b82525050565b6000610722601e836109b9565b915061072d82610a12565b602082019050919050565b6000610745601b836109b9565b915061075082610a3b565b602082019050919050565b6000610768601a836109b9565b915061077382610a64565b602082019050919050565b600061078b6000836109ae565b915061079682610a8d565b600082019050919050565b60006107ae600e836109b9565b91506107b982610a90565b602082019050919050565b60006107d16013836109b9565b91506107dc82610ab9565b602082019050919050565b60006107f46011836109b9565b91506107ff82610ae2565b602082019050919050565b61081381610a08565b82525050565b60006108248261077e565b9150819050919050565b60006020820190506108436000830184610706565b92915050565b600060608201905061085e6000830186610706565b61086b6020830185610706565b610878604083018461080a565b949350505050565b60006080820190506108956000830187610706565b6108a26020830186610706565b6108af604083018561080a565b6108bc606083018461080a565b95945050505050565b60006040820190506108da6000830185610706565b6108e7602083018461080a565b9392505050565b6000602082019050818103600083015261090781610715565b9050919050565b6000602082019050818103600083015261092781610738565b9050919050565b600060208201905081810360008301526109478161075b565b9050919050565b60006020820190508181036000830152610967816107a1565b9050919050565b60006020820190508181036000830152610987816107c4565b9050919050565b600060208201905081810360008301526109a7816107e7565b9050919050565b600081905092915050565b600082825260208201905092915050565b60006109d5826109e8565b9050919050565b60008115159050919050565b600073ffffffffffffffffffffffffffffffffffffffff82169050919050565b6000819050919050565b7f44657820646f6573206e6f74206861766520656e6f7567682066756e64730000600082015250565b7f5468697320746f6b656e206973206e6f7420737570706f727465640000000000600082015250565b7f496e73756666696369656e7420746f6b656e2062616c616e6365000000000000600082015250565b50565b7f546f6b656e20736f6c64206f7574000000000000000000000000000000000000600082015250565b7f455448207472616e73666572206661696c656400000000000000000000000000600082015250565b7f496e73756666696369656e742066756e64000000000000000000000000000000600082015250565b610b14816109ca565b8114610b1f57600080fd5b50565b610b2b816109dc565b8114610b3657600080fd5b50565b610b4281610a08565b8114610b4d57600080fd5b5056fea2646970667358221220e976e8bca01e80c5c54cfe2ba07e744030a62da37dcbb8168e6633f457934e9364736f6c63430008040033",
  "immutableReferences": {},
  "source": "// SPDX-License-Identifier: MIT\npragma solidity ^0.8.4;\n\nimport \"./ERC20.sol\";\n\ncontract Dex {\n\tevent buy(address acount, address _tokenAddr, uint256 _cost, uint256 _amount);\n\tevent sell(address acount, address _tokenAddr, uint256 _cost, uint256 _amount);\n\n\tmapping(address => bool) supportedTokenAddr;\n\n\tmodifier supportsToken(address _tokenAddr) {\n\t\trequire(supportedTokenAddr[_tokenAddr] == true, \"This token is not supported\");\n\t\t_;\n\t}\n\n\tconstructor(address[] memory _tokenAddr) {\n\t\tfor (uint256 i = 0; i < _tokenAddr.length; i++) {\n\t\t\tsupportedTokenAddr[_tokenAddr[i]] = true;\n\t\t}\n\t}\n\n\tfunction buyToken(\n\t\taddress _tokenAddr,\n\t\tuint256 _cost,\n\t\tuint256 _amount\n\t) external payable supportsToken(_tokenAddr) {\n\t\tERC20 token = ERC20(_tokenAddr);\n\t\trequire(msg.value == _cost, \"Insufficient fund\");\n\t\trequire(token.balanceOf(address(this)) >= _amount, \"Token sold out\");\n\t\ttoken.transfer(msg.sender, _amount);\n\t\temit buy(msg.sender, _tokenAddr, _cost, _amount);\n\t}\n\n\tfunction sellToken(\n\t\taddress _tokenAddr,\n\t\tuint256 _cost,\n\t\tuint256 _amount\n\t) external supportsToken(_tokenAddr) {\n\t\tERC20 token = ERC20(_tokenAddr);\n\t\trequire(token.balanceOf(msg.sender) >= _cost, \"Insufficient token balance\");\n\t\trequire(address(this).balance >= _amount, \"Dex does not have enough funds\");\n\t\ttoken.transferFrom(msg.sender, address(this), _cost);\n\t\t(bool success, ) = payable(msg.sender).call{ value: _amount }(\"\");\n\t\trequire(success, \"ETH transfer failed\");\n\t\temit sell(msg.sender, _tokenAddr, _cost, _amount);\n\t}\n}\n",
  "sourcePath": "/Users/sakaisho/study_space/ropi-swap/contracts/DEX.sol",
  "compiler": {
    "name": "solc",
    "version": "0.8.4+commit.c7e474f2.Emscripten.clang"
  },
  "schemaVersion": "3.4.3",
  "updatedAt": "2021-12-25T11:31:26.374Z",
  "devdoc": {
    "kind": "dev",
    "methods": {},
    "version": 1
  },
  "userdoc": {
    "kind": "user",
    "methods": {},
    "version": 1
  }
}